{
  "contractName": "SupplyChain",
  "abi": [
    {
      "inputs": [],
      "stateMutability": "nonpayable",
      "type": "constructor"
    },
    {
      "inputs": [
        {
          "internalType": "uint256",
          "name": "",
          "type": "uint256"
        }
      ],
      "name": "DIS",
      "outputs": [
        {
          "internalType": "address",
          "name": "addr",
          "type": "address"
        },
        {
          "internalType": "uint256",
          "name": "id",
          "type": "uint256"
        },
        {
          "internalType": "string",
          "name": "name",
          "type": "string"
        },
        {
          "internalType": "string",
          "name": "place",
          "type": "string"
        }
      ],
      "stateMutability": "view",
      "type": "function"
    },
    {
      "inputs": [
        {
          "internalType": "uint256",
          "name": "",
          "type": "uint256"
        }
      ],
      "name": "MAN",
      "outputs": [
        {
          "internalType": "address",
          "name": "addr",
          "type": "address"
        },
        {
          "internalType": "uint256",
          "name": "id",
          "type": "uint256"
        },
        {
          "internalType": "string",
          "name": "name",
          "type": "string"
        },
        {
          "internalType": "string",
          "name": "place",
          "type": "string"
        }
      ],
      "stateMutability": "view",
      "type": "function"
    },
    {
      "inputs": [
        {
          "internalType": "uint256",
          "name": "",
          "type": "uint256"
        }
      ],
      "name": "MedicineStock",
      "outputs": [
        {
          "internalType": "uint256",
          "name": "id",
          "type": "uint256"
        },
        {
          "internalType": "string",
          "name": "name",
          "type": "string"
        },
        {
          "internalType": "string",
          "name": "description",
          "type": "string"
        },
        {
          "internalType": "uint256",
          "name": "RMSid",
          "type": "uint256"
        },
        {
          "internalType": "uint256",
          "name": "MANid",
          "type": "uint256"
        },
        {
          "internalType": "uint256",
          "name": "DISid",
          "type": "uint256"
        },
        {
          "internalType": "uint256",
          "name": "RETid",
          "type": "uint256"
        },
        {
          "internalType": "enum SupplyChain.STAGE",
          "name": "stage",
          "type": "uint8"
        }
      ],
      "stateMutability": "view",
      "type": "function"
    },
    {
      "inputs": [],
      "name": "Owner",
      "outputs": [
        {
          "internalType": "address",
          "name": "",
          "type": "address"
        }
      ],
      "stateMutability": "view",
      "type": "function"
    },
    {
      "inputs": [
        {
          "internalType": "uint256",
          "name": "",
          "type": "uint256"
        }
      ],
      "name": "RET",
      "outputs": [
        {
          "internalType": "address",
          "name": "addr",
          "type": "address"
        },
        {
          "internalType": "uint256",
          "name": "id",
          "type": "uint256"
        },
        {
          "internalType": "string",
          "name": "name",
          "type": "string"
        },
        {
          "internalType": "string",
          "name": "place",
          "type": "string"
        }
      ],
      "stateMutability": "view",
      "type": "function"
    },
    {
      "inputs": [
        {
          "internalType": "uint256",
          "name": "",
          "type": "uint256"
        }
      ],
      "name": "RMS",
      "outputs": [
        {
          "internalType": "address",
          "name": "addr",
          "type": "address"
        },
        {
          "internalType": "uint256",
          "name": "id",
          "type": "uint256"
        },
        {
          "internalType": "string",
          "name": "name",
          "type": "string"
        },
        {
          "internalType": "string",
          "name": "place",
          "type": "string"
        }
      ],
      "stateMutability": "view",
      "type": "function"
    },
    {
      "inputs": [],
      "name": "disCtr",
      "outputs": [
        {
          "internalType": "uint256",
          "name": "",
          "type": "uint256"
        }
      ],
      "stateMutability": "view",
      "type": "function"
    },
    {
      "inputs": [],
      "name": "manCtr",
      "outputs": [
        {
          "internalType": "uint256",
          "name": "",
          "type": "uint256"
        }
      ],
      "stateMutability": "view",
      "type": "function"
    },
    {
      "inputs": [],
      "name": "medicineCtr",
      "outputs": [
        {
          "internalType": "uint256",
          "name": "",
          "type": "uint256"
        }
      ],
      "stateMutability": "view",
      "type": "function"
    },
    {
      "inputs": [],
      "name": "retCtr",
      "outputs": [
        {
          "internalType": "uint256",
          "name": "",
          "type": "uint256"
        }
      ],
      "stateMutability": "view",
      "type": "function"
    },
    {
      "inputs": [],
      "name": "rmsCtr",
      "outputs": [
        {
          "internalType": "uint256",
          "name": "",
          "type": "uint256"
        }
      ],
      "stateMutability": "view",
      "type": "function"
    },
    {
      "inputs": [
        {
          "internalType": "uint256",
          "name": "_medicineID",
          "type": "uint256"
        }
      ],
      "name": "showStage",
      "outputs": [
        {
          "internalType": "string",
          "name": "",
          "type": "string"
        }
      ],
      "stateMutability": "view",
      "type": "function"
    },
    {
      "inputs": [
        {
          "internalType": "address",
          "name": "_address",
          "type": "address"
        },
        {
          "internalType": "string",
          "name": "_name",
          "type": "string"
        },
        {
          "internalType": "string",
          "name": "_place",
          "type": "string"
        }
      ],
      "name": "addRMS",
      "outputs": [],
      "stateMutability": "nonpayable",
      "type": "function"
    },
    {
      "inputs": [
        {
          "internalType": "address",
          "name": "_address",
          "type": "address"
        },
        {
          "internalType": "string",
          "name": "_name",
          "type": "string"
        },
        {
          "internalType": "string",
          "name": "_place",
          "type": "string"
        }
      ],
      "name": "addManufacturer",
      "outputs": [],
      "stateMutability": "nonpayable",
      "type": "function"
    },
    {
      "inputs": [
        {
          "internalType": "address",
          "name": "_address",
          "type": "address"
        },
        {
          "internalType": "string",
          "name": "_name",
          "type": "string"
        },
        {
          "internalType": "string",
          "name": "_place",
          "type": "string"
        }
      ],
      "name": "addDistributor",
      "outputs": [],
      "stateMutability": "nonpayable",
      "type": "function"
    },
    {
      "inputs": [
        {
          "internalType": "address",
          "name": "_address",
          "type": "address"
        },
        {
          "internalType": "string",
          "name": "_name",
          "type": "string"
        },
        {
          "internalType": "string",
          "name": "_place",
          "type": "string"
        }
      ],
      "name": "addRetailer",
      "outputs": [],
      "stateMutability": "nonpayable",
      "type": "function"
    },
    {
      "inputs": [
        {
          "internalType": "uint256",
          "name": "_medicineID",
          "type": "uint256"
        }
      ],
      "name": "RMSsupply",
      "outputs": [],
      "stateMutability": "nonpayable",
      "type": "function"
    },
    {
      "inputs": [
        {
          "internalType": "uint256",
          "name": "_medicineID",
          "type": "uint256"
        }
      ],
      "name": "Manufacturing",
      "outputs": [],
      "stateMutability": "nonpayable",
      "type": "function"
    },
    {
      "inputs": [
        {
          "internalType": "uint256",
          "name": "_medicineID",
          "type": "uint256"
        }
      ],
      "name": "Distribute",
      "outputs": [],
      "stateMutability": "nonpayable",
      "type": "function"
    },
    {
      "inputs": [
        {
          "internalType": "uint256",
          "name": "_medicineID",
          "type": "uint256"
        }
      ],
      "name": "Retail",
      "outputs": [],
      "stateMutability": "nonpayable",
      "type": "function"
    },
    {
      "inputs": [
        {
          "internalType": "uint256",
          "name": "_medicineID",
          "type": "uint256"
        }
      ],
      "name": "sold",
      "outputs": [],
      "stateMutability": "nonpayable",
      "type": "function"
    },
    {
      "inputs": [
        {
          "internalType": "string",
          "name": "_name",
          "type": "string"
        },
        {
          "internalType": "string",
          "name": "_description",
          "type": "string"
        }
      ],
      "name": "addMedicine",
      "outputs": [],
      "stateMutability": "nonpayable",
      "type": "function"
    }
  ],
  "bytecode": "0x60806040525f6001555f6002555f6003555f6004555f6005553480156022575f5ffd5b50335f5f6101000a81548173ffffffffffffffffffffffffffffffffffffffff021916908373ffffffffffffffffffffffffffffffffffffffff1602179055506124d48061006f5f395ff3fe608060405234801561000f575f5ffd5b5060043610610140575f3560e01c806386c18275116100b6578063b4a99a4e1161007a578063b4a99a4e1461033a578063cc40306914610358578063dd2863981461038b578063e101a2e0146103a9578063eb1a06b5146103d9578063eef5cb401461041057610140565b806386c18275146102ac5780638f4183cc146102c85780639c03facb146102e4578063a48d335a14610300578063a95f29d91461031c57610140565b8063438e9c4d11610108578063438e9c4d146101e95780634def474a1461020757806359bf286f146102235780636a992c9f146102565780637e43d94d14610272578063857ddb041461029057610140565b80632a4af440146101445780632b0187ac146101605780632b70b08d146101935780632bdb2e6b146101af5780633d753a1c146101cd575b5f5ffd5b61015e60048036038101906101599190611de4565b610443565b005b61017a60048036038101906101759190611e9f565b61057f565b60405161018a9493929190611f48565b60405180910390f35b6101ad60048036038101906101a89190611de4565b6106d6565b005b6101b7610812565b6040516101c49190611f99565b60405180910390f35b6101e760048036038101906101e29190611e9f565b610818565b005b6101f16108f1565b6040516101fe9190611f99565b60405180910390f35b610221600480360381019061021c9190611e9f565b6108f7565b005b61023d60048036038101906102389190611e9f565b6109d0565b60405161024d9493929190611f48565b60405180910390f35b610270600480360381019061026b9190611de4565b610b27565b005b61027a610c63565b6040516102879190611f99565b60405180910390f35b6102aa60048036038101906102a59190611de4565b610c69565b005b6102c660048036038101906102c19190611e9f565b610da5565b005b6102e260048036038101906102dd9190611fb2565b610e7d565b005b6102fe60048036038101906102f99190611e9f565b611012565b005b61031a60048036038101906103159190611e9f565b6110f1565b005b6103246111ca565b6040516103319190611f99565b60405180910390f35b6103426111d0565b60405161034f9190612028565b60405180910390f35b610372600480360381019061036d9190611e9f565b6111f4565b6040516103829493929190611f48565b60405180910390f35b61039361134b565b6040516103a09190611f99565b60405180910390f35b6103c360048036038101906103be9190611e9f565b611351565b6040516103d09190612041565b60405180910390f35b6103f360048036038101906103ee9190611e9f565b61169a565b6040516104079897969594939291906120d4565b60405180910390f35b61042a60048036038101906104259190611e9f565b6117f6565b60405161043a9493929190611f48565b60405180910390f35b5f5f9054906101000a900473ffffffffffffffffffffffffffffffffffffffff1673ffffffffffffffffffffffffffffffffffffffff163373ffffffffffffffffffffffffffffffffffffffff161461049a575f5ffd5b60045f8154809291906104ac9061218b565b919050555060405180608001604052808473ffffffffffffffffffffffffffffffffffffffff16815260200160045481526020018381526020018281525060095f60045481526020019081526020015f205f820151815f015f6101000a81548173ffffffffffffffffffffffffffffffffffffffff021916908373ffffffffffffffffffffffffffffffffffffffff16021790555060208201518160010155604082015181600201908161056091906123cf565b50606082015181600301908161057691906123cf565b50905050505050565b6009602052805f5260405f205f91509050805f015f9054906101000a900473ffffffffffffffffffffffffffffffffffffffff16908060010154908060020180546105c9906121ff565b80601f01602080910402602001604051908101604052809291908181526020018280546105f5906121ff565b80156106405780601f1061061757610100808354040283529160200191610640565b820191905f5260205f20905b81548152906001019060200180831161062357829003601f168201915b505050505090806003018054610655906121ff565b80601f0160208091040260200160405190810160405280929190818152602001828054610681906121ff565b80156106cc5780601f106106a3576101008083540402835291602001916106cc565b820191905f5260205f20905b8154815290600101906020018083116106af57829003601f168201915b5050505050905084565b5f5f9054906101000a900473ffffffffffffffffffffffffffffffffffffffff1673ffffffffffffffffffffffffffffffffffffffff163373ffffffffffffffffffffffffffffffffffffffff161461072d575f5ffd5b60025f81548092919061073f9061218b565b919050555060405180608001604052808473ffffffffffffffffffffffffffffffffffffffff16815260200160025481526020018381526020018281525060075f60025481526020019081526020015f205f820151815f015f6101000a81548173ffffffffffffffffffffffffffffffffffffffff021916908373ffffffffffffffffffffffffffffffffffffffff1602179055506020820151816001015560408201518160020190816107f391906123cf565b50606082015181600301908161080991906123cf565b50905050505050565b60045481565b5f8111801561082957506001548111155b610831575f5ffd5b5f61083b3361194d565b90505f8111610848575f5ffd5b6003600581111561085c5761085b612061565b5b60065f8481526020019081526020015f206007015f9054906101000a900460ff16600581111561088f5761088e612061565b5b14610898575f5ffd5b8060065f8481526020019081526020015f2060060181905550600460065f8481526020019081526020015f206007015f6101000a81548160ff021916908360058111156108e8576108e7612061565b5b02179055505050565b60035481565b5f8111801561090857506001548111155b610910575f5ffd5b5f61091a33611a09565b90505f8111610927575f5ffd5b6002600581111561093b5761093a612061565b5b60065f8481526020019081526020015f206007015f9054906101000a900460ff16600581111561096e5761096d612061565b5b14610977575f5ffd5b8060065f8481526020019081526020015f2060050181905550600360065f8481526020019081526020015f206007015f6101000a81548160ff021916908360058111156109c7576109c6612061565b5b02179055505050565b600a602052805f5260405f205f91509050805f015f9054906101000a900473ffffffffffffffffffffffffffffffffffffffff1690806001015490806002018054610a1a906121ff565b80601f0160208091040260200160405190810160405280929190818152602001828054610a46906121ff565b8015610a915780601f10610a6857610100808354040283529160200191610a91565b820191905f5260205f20905b815481529060010190602001808311610a7457829003601f168201915b505050505090806003018054610aa6906121ff565b80601f0160208091040260200160405190810160405280929190818152602001828054610ad2906121ff565b8015610b1d5780601f10610af457610100808354040283529160200191610b1d565b820191905f5260205f20905b815481529060010190602001808311610b0057829003601f168201915b5050505050905084565b5f5f9054906101000a900473ffffffffffffffffffffffffffffffffffffffff1673ffffffffffffffffffffffffffffffffffffffff163373ffffffffffffffffffffffffffffffffffffffff1614610b7e575f5ffd5b60035f815480929190610b909061218b565b919050555060405180608001604052808473ffffffffffffffffffffffffffffffffffffffff16815260200160035481526020018381526020018281525060085f60035481526020019081526020015f205f820151815f015f6101000a81548173ffffffffffffffffffffffffffffffffffffffff021916908373ffffffffffffffffffffffffffffffffffffffff160217905550602082015181600101556040820151816002019081610c4491906123cf565b506060820151816003019081610c5a91906123cf565b50905050505050565b60055481565b5f5f9054906101000a900473ffffffffffffffffffffffffffffffffffffffff1673ffffffffffffffffffffffffffffffffffffffff163373ffffffffffffffffffffffffffffffffffffffff1614610cc0575f5ffd5b60055f815480929190610cd29061218b565b919050555060405180608001604052808473ffffffffffffffffffffffffffffffffffffffff168152602001600554815260200183815260200182815250600a5f60055481526020019081526020015f205f820151815f015f6101000a81548173ffffffffffffffffffffffffffffffffffffffff021916908373ffffffffffffffffffffffffffffffffffffffff160217905550602082015181600101556040820151816002019081610d8691906123cf565b506060820151816003019081610d9c91906123cf565b50905050505050565b5f81118015610db657506001548111155b610dbe575f5ffd5b5f610dc833611ac5565b90505f8111610dd5575f5ffd5b5f6005811115610de857610de7612061565b5b60065f8481526020019081526020015f206007015f9054906101000a900460ff166005811115610e1b57610e1a612061565b5b14610e24575f5ffd5b8060065f8481526020019081526020015f2060030181905550600160065f8481526020019081526020015f206007015f6101000a81548160ff02191690836005811115610e7457610e73612061565b5b02179055505050565b5f5f9054906101000a900473ffffffffffffffffffffffffffffffffffffffff1673ffffffffffffffffffffffffffffffffffffffff163373ffffffffffffffffffffffffffffffffffffffff1614610ed4575f5ffd5b5f600254118015610ee657505f600354115b8015610ef357505f600454115b8015610f0057505f600554115b610f08575f5ffd5b60015f815480929190610f1a9061218b565b919050555060405180610100016040528060015481526020018381526020018281526020015f81526020015f81526020015f81526020015f81526020015f6005811115610f6a57610f69612061565b5b81525060065f60015481526020019081526020015f205f820151815f01556020820151816001019081610f9d91906123cf565b506040820151816002019081610fb391906123cf565b50606082015181600301556080820151816004015560a0820151816005015560c0820151816006015560e0820151816007015f6101000a81548160ff0219169083600581111561100657611005612061565b5b02179055509050505050565b5f8111801561102357506001548111155b61102b575f5ffd5b5f6110353361194d565b90505f8111611042575f5ffd5b60065f8381526020019081526020015f20600601548114611061575f5ffd5b6004600581111561107557611074612061565b5b60065f8481526020019081526020015f206007015f9054906101000a900460ff1660058111156110a8576110a7612061565b5b146110b1575f5ffd5b600560065f8481526020019081526020015f206007015f6101000a81548160ff021916908360058111156110e8576110e7612061565b5b02179055505050565b5f8111801561110257506001548111155b61110a575f5ffd5b5f61111433611b81565b90505f8111611121575f5ffd5b6001600581111561113557611134612061565b5b60065f8481526020019081526020015f206007015f9054906101000a900460ff16600581111561116857611167612061565b5b14611171575f5ffd5b8060065f8481526020019081526020015f2060040181905550600260065f8481526020019081526020015f206007015f6101000a81548160ff021916908360058111156111c1576111c0612061565b5b02179055505050565b60015481565b5f5f9054906101000a900473ffffffffffffffffffffffffffffffffffffffff1681565b6008602052805f5260405f205f91509050805f015f9054906101000a900473ffffffffffffffffffffffffffffffffffffffff169080600101549080600201805461123e906121ff565b80601f016020809104026020016040519081016040528092919081815260200182805461126a906121ff565b80156112b55780601f1061128c576101008083540402835291602001916112b5565b820191905f5260205f20905b81548152906001019060200180831161129857829003601f168201915b5050505050908060030180546112ca906121ff565b80601f01602080910402602001604051908101604052809291908181526020018280546112f6906121ff565b80156113415780601f1061131857610100808354040283529160200191611341565b820191905f5260205f20905b81548152906001019060200180831161132457829003601f168201915b5050505050905084565b60025481565b60605f60015411611360575f5ffd5b5f600581111561137357611372612061565b5b60065f8481526020019081526020015f206007015f9054906101000a900460ff1660058111156113a6576113a5612061565b5b036113e8576040518060400160405280601081526020017f4d65646963696e65204f726465726564000000000000000000000000000000008152509050611695565b600160058111156113fc576113fb612061565b5b60065f8481526020019081526020015f206007015f9054906101000a900460ff16600581111561142f5761142e612061565b5b03611471576040518060400160405280601981526020017f526177204d6174657269616c20537570706c79205374616765000000000000008152509050611695565b6002600581111561148557611484612061565b5b60065f8481526020019081526020015f206007015f9054906101000a900460ff1660058111156114b8576114b7612061565b5b036114fa576040518060400160405280601381526020017f4d616e75666163747572696e67205374616765000000000000000000000000008152509050611695565b6003600581111561150e5761150d612061565b5b60065f8481526020019081526020015f206007015f9054906101000a900460ff16600581111561154157611540612061565b5b03611583576040518060400160405280601281526020017f446973747269627574696f6e20537461676500000000000000000000000000008152509050611695565b6004600581111561159757611596612061565b5b60065f8481526020019081526020015f206007015f9054906101000a900460ff1660058111156115ca576115c9612061565b5b0361160c576040518060400160405280600c81526020017f52657461696c20537461676500000000000000000000000000000000000000008152509050611695565b60058081111561161f5761161e612061565b5b60065f8481526020019081526020015f206007015f9054906101000a900460ff16600581111561165257611651612061565b5b03611694576040518060400160405280600d81526020017f4d65646963696e6520536f6c64000000000000000000000000000000000000008152509050611695565b5b919050565b6006602052805f5260405f205f91509050805f0154908060010180546116bf906121ff565b80601f01602080910402602001604051908101604052809291908181526020018280546116eb906121ff565b80156117365780601f1061170d57610100808354040283529160200191611736565b820191905f5260205f20905b81548152906001019060200180831161171957829003601f168201915b50505050509080600201805461174b906121ff565b80601f0160208091040260200160405190810160405280929190818152602001828054611777906121ff565b80156117c25780601f10611799576101008083540402835291602001916117c2565b820191905f5260205f20905b8154815290600101906020018083116117a557829003601f168201915b505050505090806003015490806004015490806005015490806006015490806007015f9054906101000a900460ff16905088565b6007602052805f5260405f205f91509050805f015f9054906101000a900473ffffffffffffffffffffffffffffffffffffffff1690806001015490806002018054611840906121ff565b80601f016020809104026020016040519081016040528092919081815260200182805461186c906121ff565b80156118b75780601f1061188e576101008083540402835291602001916118b7565b820191905f5260205f20905b81548152906001019060200180831161189a57829003601f168201915b5050505050908060030180546118cc906121ff565b80601f01602080910402602001604051908101604052809291908181526020018280546118f8906121ff565b80156119435780601f1061191a57610100808354040283529160200191611943565b820191905f5260205f20905b81548152906001019060200180831161192657829003601f168201915b5050505050905084565b5f5f6005541161195b575f5ffd5b5f600190505b60055481116119ff578273ffffffffffffffffffffffffffffffffffffffff16600a5f8381526020019081526020015f205f015f9054906101000a900473ffffffffffffffffffffffffffffffffffffffff1673ffffffffffffffffffffffffffffffffffffffff16036119ec57600a5f8281526020019081526020015f2060010154915050611a04565b80806119f79061218b565b915050611961565b505f90505b919050565b5f5f60045411611a17575f5ffd5b5f600190505b6004548111611abb578273ffffffffffffffffffffffffffffffffffffffff1660095f8381526020019081526020015f205f015f9054906101000a900473ffffffffffffffffffffffffffffffffffffffff1673ffffffffffffffffffffffffffffffffffffffff1603611aa85760095f8281526020019081526020015f2060010154915050611ac0565b8080611ab39061218b565b915050611a1d565b505f90505b919050565b5f5f60025411611ad3575f5ffd5b5f600190505b6002548111611b77578273ffffffffffffffffffffffffffffffffffffffff1660075f8381526020019081526020015f205f015f9054906101000a900473ffffffffffffffffffffffffffffffffffffffff1673ffffffffffffffffffffffffffffffffffffffff1603611b645760075f8281526020019081526020015f2060010154915050611b7c565b8080611b6f9061218b565b915050611ad9565b505f90505b919050565b5f5f60035411611b8f575f5ffd5b5f600190505b6003548111611c33578273ffffffffffffffffffffffffffffffffffffffff1660085f8381526020019081526020015f205f015f9054906101000a900473ffffffffffffffffffffffffffffffffffffffff1673ffffffffffffffffffffffffffffffffffffffff1603611c205760085f8281526020019081526020015f2060010154915050611c38565b8080611c2b9061218b565b915050611b95565b505f90505b919050565b5f604051905090565b5f5ffd5b5f5ffd5b5f73ffffffffffffffffffffffffffffffffffffffff82169050919050565b5f611c7782611c4e565b9050919050565b611c8781611c6d565b8114611c91575f5ffd5b50565b5f81359050611ca281611c7e565b92915050565b5f5ffd5b5f5ffd5b5f601f19601f8301169050919050565b7f4e487b71000000000000000000000000000000000000000000000000000000005f52604160045260245ffd5b611cf682611cb0565b810181811067ffffffffffffffff82111715611d1557611d14611cc0565b5b80604052505050565b5f611d27611c3d565b9050611d338282611ced565b919050565b5f67ffffffffffffffff821115611d5257611d51611cc0565b5b611d5b82611cb0565b9050602081019050919050565b828183375f83830152505050565b5f611d88611d8384611d38565b611d1e565b905082815260208101848484011115611da457611da3611cac565b5b611daf848285611d68565b509392505050565b5f82601f830112611dcb57611dca611ca8565b5b8135611ddb848260208601611d76565b91505092915050565b5f5f5f60608486031215611dfb57611dfa611c46565b5b5f611e0886828701611c94565b935050602084013567ffffffffffffffff811115611e2957611e28611c4a565b5b611e3586828701611db7565b925050604084013567ffffffffffffffff811115611e5657611e55611c4a565b5b611e6286828701611db7565b9150509250925092565b5f819050919050565b611e7e81611e6c565b8114611e88575f5ffd5b50565b5f81359050611e9981611e75565b92915050565b5f60208284031215611eb457611eb3611c46565b5b5f611ec184828501611e8b565b91505092915050565b611ed381611c6d565b82525050565b611ee281611e6c565b82525050565b5f81519050919050565b5f82825260208201905092915050565b8281835e5f83830152505050565b5f611f1a82611ee8565b611f248185611ef2565b9350611f34818560208601611f02565b611f3d81611cb0565b840191505092915050565b5f608082019050611f5b5f830187611eca565b611f686020830186611ed9565b8181036040830152611f7a8185611f10565b90508181036060830152611f8e8184611f10565b905095945050505050565b5f602082019050611fac5f830184611ed9565b92915050565b5f5f60408385031215611fc857611fc7611c46565b5b5f83013567ffffffffffffffff811115611fe557611fe4611c4a565b5b611ff185828601611db7565b925050602083013567ffffffffffffffff81111561201257612011611c4a565b5b61201e85828601611db7565b9150509250929050565b5f60208201905061203b5f830184611eca565b92915050565b5f6020820190508181035f8301526120598184611f10565b905092915050565b7f4e487b71000000000000000000000000000000000000000000000000000000005f52602160045260245ffd5b6006811061209f5761209e612061565b5b50565b5f8190506120af8261208e565b919050565b5f6120be826120a2565b9050919050565b6120ce816120b4565b82525050565b5f610100820190506120e85f83018b611ed9565b81810360208301526120fa818a611f10565b9050818103604083015261210e8189611f10565b905061211d6060830188611ed9565b61212a6080830187611ed9565b61213760a0830186611ed9565b61214460c0830185611ed9565b61215160e08301846120c5565b9998505050505050505050565b7f4e487b71000000000000000000000000000000000000000000000000000000005f52601160045260245ffd5b5f61219582611e6c565b91507fffffffffffffffffffffffffffffffffffffffffffffffffffffffffffffffff82036121c7576121c661215e565b5b600182019050919050565b7f4e487b71000000000000000000000000000000000000000000000000000000005f52602260045260245ffd5b5f600282049050600182168061221657607f821691505b602082108103612229576122286121d2565b5b50919050565b5f819050815f5260205f209050919050565b5f6020601f8301049050919050565b5f82821b905092915050565b5f6008830261228b7fffffffffffffffffffffffffffffffffffffffffffffffffffffffffffffffff82612250565b6122958683612250565b95508019841693508086168417925050509392505050565b5f819050919050565b5f6122d06122cb6122c684611e6c565b6122ad565b611e6c565b9050919050565b5f819050919050565b6122e9836122b6565b6122fd6122f5826122d7565b84845461225c565b825550505050565b5f5f905090565b612314612305565b61231f8184846122e0565b505050565b5b81811015612342576123375f8261230c565b600181019050612325565b5050565b601f821115612387576123588161222f565b61236184612241565b81016020851015612370578190505b61238461237c85612241565b830182612324565b50505b505050565b5f82821c905092915050565b5f6123a75f198460080261238c565b1980831691505092915050565b5f6123bf8383612398565b9150826002028217905092915050565b6123d882611ee8565b67ffffffffffffffff8111156123f1576123f0611cc0565b5b6123fb82546121ff565b612406828285612346565b5f60209050601f831160018114612437575f8415612425578287015190505b61242f85826123b4565b865550612496565b601f1984166124458661222f565b5f5b8281101561246c57848901518255600182019150602085019450602081019050612447565b868310156124895784890151612485601f891682612398565b8355505b6001600288020188555050505b50505050505056fea26469706673582212207aa93de69896a47f0d63d69654b4b91a677add188260fe9307ab461a5f339f4464736f6c634300081d0033",
  "immutableReferences": {},
  "source": "// SPDX-License-Identifier: MIT\r\npragma solidity >=0.4.22 <0.9.0;\r\n\r\ncontract SupplyChain {\r\n    //Smart Contract owner will be the person who deploys the contract only he can authorize various roles like retailer, Manufacturer,etc\r\n    address public Owner;\r\n\r\n    //note this constructor will be called when smart contract will be deployed on blockchain\r\n    constructor() public {\r\n        Owner = msg.sender;\r\n    }\r\n\r\n    //Roles (flow of pharma supply chain)\r\n    // RawMaterialSupplier; //This is where Manufacturer will get raw materials to make medicines\r\n    // Manufacturer;  //Various WHO guidelines should be followed by this person\r\n    // Distributor; //This guy distributes the medicines to retailers\r\n    // Retailer; //Normal customer buys from the retailer\r\n\r\n    //modifier to make sure only the owner is using the function\r\n    modifier onlyByOwner() {\r\n        require(msg.sender == Owner);\r\n        _;\r\n    }\r\n\r\n    //stages of a medicine in pharma supply chain\r\n    enum STAGE {\r\n        Init,\r\n        RawMaterialSupply,\r\n        Manufacture,\r\n        Distribution,\r\n        Retail,\r\n        sold\r\n    }\r\n    //using this we are going to track every single medicine the owner orders\r\n\r\n    //Medicine count\r\n    uint256 public medicineCtr = 0;\r\n    //Raw material supplier count\r\n    uint256 public rmsCtr = 0;\r\n    //Manufacturer count\r\n    uint256 public manCtr = 0;\r\n    //distributor count\r\n    uint256 public disCtr = 0;\r\n    //retailer count\r\n    uint256 public retCtr = 0;\r\n\r\n    //To store information about the medicine\r\n    struct medicine {\r\n        uint256 id; //unique medicine id\r\n        string name; //name of the medicine\r\n        string description; //about medicine\r\n        uint256 RMSid; //id of the Raw Material supplier for this particular medicine\r\n        uint256 MANid; //id of the Manufacturer for this particular medicine\r\n        uint256 DISid; //id of the distributor for this particular medicine\r\n        uint256 RETid; //id of the retailer for this particular medicine\r\n        STAGE stage; //current medicine stage\r\n    }\r\n\r\n    //To store all the medicines on the blockchain\r\n    mapping(uint256 => medicine) public MedicineStock;\r\n\r\n    //To show status to client applications\r\n    function showStage(uint256 _medicineID)\r\n        public\r\n        view\r\n        returns (string memory)\r\n    {\r\n        require(medicineCtr > 0);\r\n        if (MedicineStock[_medicineID].stage == STAGE.Init)\r\n            return \"Medicine Ordered\";\r\n        else if (MedicineStock[_medicineID].stage == STAGE.RawMaterialSupply)\r\n            return \"Raw Material Supply Stage\";\r\n        else if (MedicineStock[_medicineID].stage == STAGE.Manufacture)\r\n            return \"Manufacturing Stage\";\r\n        else if (MedicineStock[_medicineID].stage == STAGE.Distribution)\r\n            return \"Distribution Stage\";\r\n        else if (MedicineStock[_medicineID].stage == STAGE.Retail)\r\n            return \"Retail Stage\";\r\n        else if (MedicineStock[_medicineID].stage == STAGE.sold)\r\n            return \"Medicine Sold\";\r\n    }\r\n\r\n    //To store information about raw material supplier\r\n    struct rawMaterialSupplier {\r\n        address addr;\r\n        uint256 id; //supplier id\r\n        string name; //Name of the raw material supplier\r\n        string place; //Place the raw material supplier is based in\r\n    }\r\n\r\n    //To store all the raw material suppliers on the blockchain\r\n    mapping(uint256 => rawMaterialSupplier) public RMS;\r\n\r\n    //To store information about manufacturer\r\n    struct manufacturer {\r\n        address addr;\r\n        uint256 id; //manufacturer id\r\n        string name; //Name of the manufacturer\r\n        string place; //Place the manufacturer is based in\r\n    }\r\n\r\n    //To store all the manufacturers on the blockchain\r\n    mapping(uint256 => manufacturer) public MAN;\r\n\r\n    //To store information about distributor\r\n    struct distributor {\r\n        address addr;\r\n        uint256 id; //distributor id\r\n        string name; //Name of the distributor\r\n        string place; //Place the distributor is based in\r\n    }\r\n\r\n    //To store all the distributors on the blockchain\r\n    mapping(uint256 => distributor) public DIS;\r\n\r\n    //To store information about retailer\r\n    struct retailer {\r\n        address addr;\r\n        uint256 id; //retailer id\r\n        string name; //Name of the retailer\r\n        string place; //Place the retailer is based in\r\n    }\r\n\r\n    //To store all the retailers on the blockchain\r\n    mapping(uint256 => retailer) public RET;\r\n\r\n    //To add raw material suppliers. Only contract owner can add a new raw material supplier\r\n    function addRMS(\r\n        address _address,\r\n        string memory _name,\r\n        string memory _place\r\n    ) public onlyByOwner() {\r\n        rmsCtr++;\r\n        RMS[rmsCtr] = rawMaterialSupplier(_address, rmsCtr, _name, _place);\r\n    }\r\n\r\n    //To add manufacturer. Only contract owner can add a new manufacturer\r\n    function addManufacturer(\r\n        address _address,\r\n        string memory _name,\r\n        string memory _place\r\n    ) public onlyByOwner() {\r\n        manCtr++;\r\n        MAN[manCtr] = manufacturer(_address, manCtr, _name, _place);\r\n    }\r\n\r\n    //To add distributor. Only contract owner can add a new distributor\r\n    function addDistributor(\r\n        address _address,\r\n        string memory _name,\r\n        string memory _place\r\n    ) public onlyByOwner() {\r\n        disCtr++;\r\n        DIS[disCtr] = distributor(_address, disCtr, _name, _place);\r\n    }\r\n\r\n    //To add retailer. Only contract owner can add a new retailer\r\n    function addRetailer(\r\n        address _address,\r\n        string memory _name,\r\n        string memory _place\r\n    ) public onlyByOwner() {\r\n        retCtr++;\r\n        RET[retCtr] = retailer(_address, retCtr, _name, _place);\r\n    }\r\n\r\n\r\n    //To supply raw materials from RMS supplier to the manufacturer\r\n    function RMSsupply(uint256 _medicineID) public {\r\n        require(_medicineID > 0 && _medicineID <= medicineCtr);\r\n        uint256 _id = findRMS(msg.sender);\r\n        require(_id > 0);\r\n        require(MedicineStock[_medicineID].stage == STAGE.Init);\r\n        MedicineStock[_medicineID].RMSid = _id;\r\n        MedicineStock[_medicineID].stage = STAGE.RawMaterialSupply;\r\n    }\r\n\r\n    //To check if RMS is available in the blockchain\r\n    function findRMS(address _address) private view returns (uint256) {\r\n        require(rmsCtr > 0);\r\n        for (uint256 i = 1; i <= rmsCtr; i++) {\r\n            if (RMS[i].addr == _address) return RMS[i].id;\r\n        }\r\n        return 0;\r\n    }\r\n\r\n    //To manufacture medicine\r\n    function Manufacturing(uint256 _medicineID) public {\r\n        require(_medicineID > 0 && _medicineID <= medicineCtr);\r\n        uint256 _id = findMAN(msg.sender);\r\n        require(_id > 0);\r\n        require(MedicineStock[_medicineID].stage == STAGE.RawMaterialSupply);\r\n        MedicineStock[_medicineID].MANid = _id;\r\n        MedicineStock[_medicineID].stage = STAGE.Manufacture;\r\n    }\r\n\r\n    //To check if Manufacturer is available in the blockchain\r\n    function findMAN(address _address) private view returns (uint256) {\r\n        require(manCtr > 0);\r\n        for (uint256 i = 1; i <= manCtr; i++) {\r\n            if (MAN[i].addr == _address) return MAN[i].id;\r\n        }\r\n        return 0;\r\n    }\r\n\r\n    //To supply medicines from Manufacturer to distributor\r\n    function Distribute(uint256 _medicineID) public {\r\n        require(_medicineID > 0 && _medicineID <= medicineCtr);\r\n        uint256 _id = findDIS(msg.sender);\r\n        require(_id > 0);\r\n        require(MedicineStock[_medicineID].stage == STAGE.Manufacture);\r\n        MedicineStock[_medicineID].DISid = _id;\r\n        MedicineStock[_medicineID].stage = STAGE.Distribution;\r\n    }\r\n\r\n    //To check if distributor is available in the blockchain\r\n    function findDIS(address _address) private view returns (uint256) {\r\n        require(disCtr > 0);\r\n        for (uint256 i = 1; i <= disCtr; i++) {\r\n            if (DIS[i].addr == _address) return DIS[i].id;\r\n        }\r\n        return 0;\r\n    }\r\n\r\n    //To supply medicines from distributor to retailer\r\n    function Retail(uint256 _medicineID) public {\r\n        require(_medicineID > 0 && _medicineID <= medicineCtr);\r\n        uint256 _id = findRET(msg.sender);\r\n        require(_id > 0);\r\n        require(MedicineStock[_medicineID].stage == STAGE.Distribution);\r\n        MedicineStock[_medicineID].RETid = _id;\r\n        MedicineStock[_medicineID].stage = STAGE.Retail;\r\n    }\r\n\r\n    //To check if retailer is available in the blockchain\r\n    function findRET(address _address) private view returns (uint256) {\r\n        require(retCtr > 0);\r\n        for (uint256 i = 1; i <= retCtr; i++) {\r\n            if (RET[i].addr == _address) return RET[i].id;\r\n        }\r\n        return 0;\r\n    }\r\n\r\n    //To sell medicines from retailer to consumer\r\n    function sold(uint256 _medicineID) public {\r\n        require(_medicineID > 0 && _medicineID <= medicineCtr);\r\n        uint256 _id = findRET(msg.sender);\r\n        require(_id > 0);\r\n        require(_id == MedicineStock[_medicineID].RETid); //Only correct retailer can mark medicine as sold\r\n        require(MedicineStock[_medicineID].stage == STAGE.Retail);\r\n        MedicineStock[_medicineID].stage = STAGE.sold;\r\n    }\r\n\r\n    // To add new medicines to the stock\r\n    function addMedicine(string memory _name, string memory _description)\r\n        public\r\n        onlyByOwner()\r\n    {\r\n        require((rmsCtr > 0) && (manCtr > 0) && (disCtr > 0) && (retCtr > 0));\r\n        medicineCtr++;\r\n        MedicineStock[medicineCtr] = medicine(\r\n            medicineCtr,\r\n            _name,\r\n            _description,\r\n            0,\r\n            0,\r\n            0,\r\n            0,\r\n            STAGE.Init\r\n        );\r\n    }\r\n}\r\n",
  "sourcePath": "R:\\freelance\\Drug_Blockchain\\contracts\\SupplyChain.sol",
  "compiler": {
    "name": "solc",
    "version": "0.8.29+commit.ab55807c.Emscripten.clang"
  },
  "schemaVersion": "3.4.16",
  "updatedAt": "2025-03-21T17:08:46.590Z",
  "devdoc": {
    "kind": "dev",
    "methods": {},
    "version": 1
  },
  "userdoc": {
    "kind": "user",
    "methods": {},
    "version": 1
  }
}